S01700004763634170706C69636174696F6E362E7372656356
S11300000C942A000C9447000C9447000C9449006B
S11300100C9447000C9447000C9447000C94810006
S11300200C9447000C9447000C9490000C944700E7
S11300300C9447000C9447000C9447000C94470020
S11300400C9447000C9447000C9447000C94470010
S11300500C94470011241FBECFE5D8E0DEBFCDBF0E
S113006010E0A0E6B0E0E6EEF8E002C005900D92E4
S1130070AA36B107D9F720E0AAE6B0E001C01D9284
S1130080AB38B207E1F70E94BE000C9471040C94E3
S113009000001F920F920FB60F9211242F933F93DB
S11300A04F935F936F937F938F939F93AF93BF937C
S11300B0EF93FF9380916D0081110DC081E08093D7
S11300C06D0080E090E00E94D00290E090936F0079
S11300D080936E0005C08150823010F410926D0040
S11300E0FF91EF91BF91AF919F918F917F916F910C
S11300F05F914F913F912F910F900FBE0F901F90E2
S113010018951F920F920FB60F9211248F9381E0CE
S113011080936B008F910F900FBE0F901F901895D6
S11301201F920F920FB60F9211242F933F938F9328
S11301309F9380916D0081508230B8F480916C005F
S11301408F5F80936C00982F937051F4209170000E
S11301503091710091E02927309371002093700051
S1130160853118F081E080936D009F918F913F91CC
S11301702F910F900FBE0F901F9018950E94700240
S113018080916D00813021F030F0823039F0FACF67
S11301900E941002F5CF0E94B002F2CF0E946A01C1
S11301A0EFCFBA98B998BB98C29AC19AC39A789477
S11301B084B7806484BF8BB780628BBF0895B19984
S11301C00CC087EA91E60197F1F700C0000086B3FE
S11301D08695817091E08927089580E00895B39908
S11301E00DC087EA91E60197F1F700C0000086B3DD
S11301F083FB992790F981E08927089580E0089589
S1130200BC9A0895BD9A0895C49A0895C59A08950C
S1130210C4980895C5980895B89AC0980895C09A46
S11302200895C0980895813019F4C69AC79808951E
S1130230823011F4C79AC6980895C698C79808954D
S11302408FEF81BBBE9ABF9A0E941D01089512BA16
S11302500895CF93DF93EC0181E00E9413019E0186
S1130260ADECBCEC0E944E049695879596958795C7
S1130270969587959C01220F331F880F991F880F2D
S1130280991F880F991F820F931FFE01E81BF90B1A
S1130290FF27E05AFF4F808182BB81EE94E00197F3
S11302A0F1F700C0000082E00E941301CE016AE071
S11302B070E00E943A04FB01FF27E05AFF4F80815F
S11302C082BB81EE94E00197F1F700C00000DF915A
S11302D0CF9108950E9408010E940A010E94110111
S11302E08091700090917100019739F480916E00B3
S11302F090916F000E94290102C00E9427010E9470
S1130300DF00813089F480916E0090916F008B340E
S1130310910550F4059690936F0080936E001092AF
S11303206C000E94290114C00E94EF00813081F406
S113033080916E0090916F008432910548F005978A
S113034090936F0080936E0010926C000E942901BC
S113035060916E0080E090E00E94D5020895809143
S113036074009091750020916E0030916F00AC0183
S11303704B5F5F4F2417350790F405978217930757
S113038038F40E9408010E940A010E941101089594
S11303900E9408010E9406010E940F01089505971A
S11303A08217930778F40E9404010E940A01809145
S11303B0700090917100019719F40E940F01089543
S11303C00E941101089520916A0030E0220F331F2A
S11303D0820F931FFC017183608380916A008F5F99
S11303E08A3019F080936A00089510926A00089583
S11303F0FC01AC014C5E5F4F20E030E081919191B3
S1130400280F391FE417F507C9F7ADECBCEC0E94BF
S11304104E04969587959695879596958795089514
S113042080916B00813009F50E94C702BC0180E015
S113043090E00E943F0320E030E040E05FE30E9450
S1130440A5030E941003709373006093720087E702
S113045090E00E94E30187E790E00E94F801909306
S113046075008093740010926B00809172009091DB
S113047073000E9429010E94AF010E94DF008130B5
S113048021F00E94EF00813039F40E941D01109286
S11304906C0082E080936D0008950E94C702BC0145
S11304A080E090E00E943F0320E030E040E05FE322
S11304B00E94A5030E941003E7E7F0E08BE890E0B8
S11304C061937193E817F907D9F787E790E00E94E1
S11304D0F801909375008093740010926A00089557
S11304E00E94BB020E94D1000E9402010E940001EE
S11304F00E940C010E9420010E94FC020E94EB0257
S11305000E940C0310926D0080E090E00E94D002E3
S11305108F3F51F080E090E00E94D00290E09093F1
S11305206F0080936E0006C082E390E090936F00AA
S113053080936E000E944D0260916E0080E090E016
S11305400E94D502089585B78F7E85BF85B78F7DBC
S113055085BF85B78F7B85BF85B7806885BF0895C4
S11305600E9427010E9411010E9408010E940A01B1
S11305700E94A30208953E9A389839983A983B9875
S11305803C983D98309A31983298379A0895369A23
S1130590309BFECF84B125B1349A90E0922B08951C
S11305A08EBB9FBBE09A8DB308958EBB9FBB6DBB82
S11305B00FB607FE05C08FB78F778FBF81E001C0EC
S11305C080E0E29AE19AE199FECF813019F48FB785
S11305D080688FBF08958EB588608EBD1BBC82E68F
S11305E08ABD8EB581608EBD8EB58D7F8EBD8EB574
S11305F084608EBD7894089583B7886083BF8AEF42
S11306008CBF83B7816083BF83B7846083BF7894D2
S113061089B7826089BF089589B7806189BF0895C9
S11306200E94840388F09F5798F0B92F9927B751F7
S1130630B0F0E1F0660F771F881F991F1AF0BA9582
S1130640C9F714C0B13091F00E949E03B1E008953F
S11306500C949E03672F782F8827B85F39F0B93F31
S1130660CCF3869577956795B395D9F73EF4909535
S11306708095709561957F4F8F4F9F4F0895E894B3
S113068009C097FB3EF490958095709561957F4FD6
S11306908F4F9F4F9923A9F0F92F96E9BB27939584
S11306A0F695879577956795B795F111F8CFFAF494
S11306B0BB0F11F460FF1BC06F5F7F4F8F4F9F4FC5
S11306C016C0882311F096E911C0772321F09EE823
S11306D0872F762F05C0662371F096E8862F70E089
S11306E060E02AF09A95660F771F881FDAF7880F63
S11306F09695879597F9089557FD9058440F551F7F
S113070059F05F3F71F04795880F97FB991F61F08F
S11307109F3F79F087950895121613061406551F06
S1130720F2CF4695F1DF08C0161617061806991F72
S1130730F1CF86957105610508940895E894BB2767
S113074066277727CB0197F908950E94B8030C9484
S113075029040E941B0438F00E94220420F09523EF
S113076011F00C9412040C94180411240C949F039B
S11307700E947C0370F3959FC1F3950F50E0551FC1
S1130780629FF001729FBB27F00DB11D639FAA27E2
S1130790F00DB11DAA1F649F6627B00DA11D661F31
S11307A0829F2227B00DA11D621F739FB00DA11D52
S11307B0621F839FA00D611D221F749F3327A00D0C
S11307C0611D231F849F600D211D822F762F6A2FA8
S11307D011249F5750409AF0F1F088234AF0EE0F0D
S11307E0FF1FBB1F661F771F881F91505040A9F73A
S11307F09E3F510580F00C9412040C949F035F3FBC
S1130800E4F3983ED4F3869577956795B795F79575
S1130810E7959F5FC1F7FE2B880F911D96958795ED
S113082097F9089597F99F6780E870E060E008956C
S11308309FEF80EC089500240A94161617061806F4
S11308400906089500240A941216130614060506D0
S11308500895092E0394000C11F4882352F0BB0F61
S113086040F4BF2B11F460FF04C06F5F7F4F8F4FC4
S11308709F4F089597FB072E16F4009407D077FD39
S113088009D00E945D0407FC05D03EF49095819543
S11308909F4F0895709561957F4F0895A29FB00171
S11308A0B39FC001A39F700D811D1124911DB29FA0
S11308B0700D811D1124911D0895AA1BBB1B51E1CC
S11308C007C0AA1FBB1FA617B70710F0A61BB70BBC
S11308D0881F991F5A95A9F780959095BC01CD0161
S10908E00895F894FFCF17
S10D08E63F065B4F666D7D077F6FD0
S9030000FC
